:100000000C9435000C945D000C945D000C945D0024
:100010000C945D000C945D000C945D000C945D00EC
:100020000C945D000C945D000C945D000C945D00DC
:100030000C945D000C945D000C945D000C945D00CC
:100040000C943A020C945D000C9408020C94E201AA
:100050000C945D000C945D000C945D000C945D00AC
:100060000C945D000C945D00150411241FBECFEFAD
:10007000D8E0DEBFCDBF11E0A0E0B1E0EEE9F8E0EE
:1000800002C005900D92AA37B107D9F722E0AAE77E
:10009000B1E001C01D92A032B207E1F710E0C5E364
:1000A000D0E004C02197FE010E944204C433D1076E
:1000B000C9F70E9484020C944D040C940000E09156
:1000C0008301F09184010190F081E02D682F83E895
:1000D00091E00994CF92DF92EF92FF920F931F93DA
:1000E000CF93DF936C017A018B01C0E0D0E0CE1595
:1000F000DF0589F0D8016D918D01D601ED91FC915C
:100100000190F081E02DC6010995892B11F47E0143
:1001100002C02196ECCFC701DF91CF911F910F91C3
:10012000FF90EF90DF90CF900895FC01918D828D2C
:10013000981761F0828DDF01A80FB11D5D968C913B
:10014000928D9F5F9F73928F90E008958FEF9FEF46
:100150000895FC01918D828D981731F0828DE80F02
:10016000F11D858D90E008958FEF9FEF0895FC01BC
:10017000918D228D892F90E0805C9F4F821B910989
:100180008F739927089583E891E00E94B70021E0DA
:10019000892B09F420E0822F0895FC01848DDF0172
:1001A000A80FB11DA35ABF4F2C91848D90E00196EA
:1001B0008F739927848FA689B7892C93A089B189D9
:1001C0008C9180648C93938D848D981306C00288E3
:1001D000F389E02D80818F7D80830895EF92FF92D7
:1001E0000F931F93CF93DF93EC0181E0888F9B8D5A
:1001F0008C8D981305C0E889F989808185FD24C01C
:10020000F62E0B8D10E00F5F1F4F0F731127E02E9E
:100210008C8DE8120CC00FB607FCFACFE889F9897B
:10022000808185FFF5CFCE010E94CD00F1CF8B8D6F
:10023000FE01E80FF11DE35AFF4FF0820B8FEA89B0
:10024000FB898081806207C0EE89FF896083E8892D
:10025000F98980818064808381E090E0DF91CF9193
:100260001F910F91FF90EF900895CF93DF93EC01D2
:10027000888D8823C9F0EA89FB89808185FD05C0C6
:10028000A889B9898C9186FD0FC00FB607FCF5CF00
:10029000808185FFF2CFA889B9898C9185FFEDCF48
:1002A000CE010E94CD00E7CFDF91CF91089580E08D
:1002B00090E0892B29F00E94C30081110C9400006A
:1002C00008953FB7F89480917F0190918001A091AB
:1002D0008101B091820126B5A89B05C02F3F19F07E
:1002E0000196A11DB11D3FBFBA2FA92F982F8827B6
:1002F000820F911DA11DB11DBC01CD0142E0660F11
:10030000771F881F991F4A95D1F708958F929F9262
:10031000AF92BF92CF92DF92EF92FF920E94610163
:100320004B015C0188EEC82E83E0D82EE12CF12C25
:100330000E946101DC01CB0188199909AA09BB0956
:10034000883E9340A105B10558F021E0C21AD108BA
:10035000E108F10888EE880E83E0981EA11CB11C0C
:10036000C114D104E104F10419F7FF90EF90DF907C
:10037000CF90BF90AF909F908F900895CF93DF93D1
:10038000009779F0FC0101900020E9F73197AF0167
:10039000481B590BBC0183E891E00E946A00EC0104
:1003A00002C0C0E0D0E042E050E060E171E083E8EC
:1003B00091E00E946A008C0F9D1FDF91CF910895FC
:1003C0000E9448041F920F920FB60F9211242F9390
:1003D0003F934F935F936F937F938F939F93AF93CD
:1003E000BF93EF93FF9383E891E00E94CD00FF91CC
:1003F000EF91BF91AF919F918F917F916F915F919D
:100400004F913F912F910F900FBE0F901F90189515
:100410001F920F920FB60F9211242F938F939F93D9
:10042000EF93FF93E0919301F09194018081E0912B
:100430009901F0919A0182FD12C0908180919C01F6
:100440008F5F8F7320919D01821751F0E0919C0185
:10045000F0E0ED57FE4F958F80939C0101C08081A5
:10046000FF91EF919F918F912F910F900FBE0F9061
:100470001F9018951F920F920FB60F9211242F9371
:100480003F938F939F93AF93BF9380917B01909104
:100490007C01A0917D01B0917E0130917A0123E031
:1004A000230F2D3720F40196A11DB11D05C026E8AC
:1004B000230F0296A11DB11D20937A0180937B0129
:1004C00090937C01A0937D01B0937E0180917F0188
:1004D00090918001A0918101B09182010196A11DAE
:1004E000B11D80937F0190938001A0938101B0930F
:1004F0008201BF91AF919F918F913F912F910F906A
:100500000FBE0F901F901895789484B5826084BDBB
:1005100084B5816084BD85B5826085BD85B5816007
:1005200085BD80916E00816080936E001092810085
:100530008091810082608093810080918100816040
:100540008093810080918000816080938000809101
:10055000B10084608093B1008091B000816080938D
:10056000B00080917A00846080937A0080917A0054
:10057000826080937A0080917A00816080937A0013
:1005800080917A00806880937A001092C100E09197
:100590009301F091940182E08083E0918F01F091CA
:1005A00090011082E0919101F091920180E18083AD
:1005B00010929B01E0919701F091980186E0808371
:1005C000E0919501F0919601808180618083E091B6
:1005D0009501F0919601808188608083E09195017A
:1005E000F0919601808180688083E0919501F0917F
:1005F000960180818F7D808383E191E00E94BE011E
:100600008BE191E00E94BE0181E491E00E94BE0175
:1006100089E591E00E94BE0184E40E945F0000E150
:100620001EE0C8E1D0E00E9486012197E1F7015069
:100630001109B9F783E40E945F0000E11EE0C8E100
:10064000D0E00E9486012197E1F701501109B9F726
:1006500089E40E945F0000E11EE0C8E1D0E00E9452
:1006600086012197E1F701501109B9F78BE70E9444
:100670005F0000E11EE0C8E1D0E00E948601219702
:10068000E1F701501109B9F784E70E945F0000E12A
:100690001EE0C8E1D0E00E9486012197E1F70150F9
:1006A0001109B9F784E30E945F0000E11EE0C8E190
:1006B000D0E00E9486012197E1F701501109B9F7B6
:1006C00083E70E945F0000E11EE0C8E1D0E00E94E5
:1006D00086012197E1F701501109B9F784E70E94DB
:1006E0005F0000E11EE0C8E1D0E00E948601219792
:1006F000E1F701501109B9F785E60E945F0000E1BA
:100700001EE0C8E1D0E00E9486012197E1F7015088
:100710001109B9F78FE50E945F0000E11EE0C8E112
:10072000D0E00E9486012197E1F701501109B9F745
:1007300084E70E945F0000E11EE0C8E1D0E00E9473
:1007400086012197E1F701501109B9F788E60E9467
:100750005F0000E11EE0C8E1D0E00E948601219721
:10076000E1F701501109B9F783E30E945F0000E14E
:100770001EE0C8E1D0E00E9486012197E1F7015018
:100780001109B9F78FE50E945F0000E11EE0C8E1A2
:10079000D0E00E9486012197E1F701501109B9F7D5
:1007A00084E30E945F0000E11EE0C8E1D0E00E9407
:1007B00086012197E1F701501109B9F786E70E94F8
:1007C0005F0000E11EE0C8E1D0E00E9486012197B1
:1007D000E1F701501109B9F782E70E945F0000E1DB
:1007E0001EE0C8E1D0E00E9486012197E1F70150A8
:1007F0001109B9F78DE70E945F0000E11EE0C8E132
:10080000D0E00E9486012197E1F701501109B9F764
:1008100042E050E060E171E083E891E00E946A000C
:100820000E9486010E945701E7CEE3E8F1E01382BF
:10083000128288EE93E0A0E0B0E084839583A683E3
:10084000B78384E091E09183808385EC90E0958785
:10085000848784EC90E09787868780EC90E0918B8A
:10086000808B81EC90E0938B828B82EC90E0958B77
:10087000848B86EC90E0978B868B118E128E138E74
:10088000148E0895EE0FFF1F0590F491E02D09944A
:0E08900081E090E0F8940C944D04F894FFCFB2
:10089E0000000000EE006A00B7009500A9003501C7
:1008AE000D0A0057656C636F6D6500492077696CA2
:1008BE006C2073656E6420796F75206561636820A6
:1008CE0063686172206F662074686520666C61676C
:1008DE0000427574206F6E6C79206F6E65207065A6
:1008EE0072206461792E2E2E004920686F7065206B
:1008FE00796F7520617265206E6F7420696E20614C
:0A090E002072757368203A2900007A
:00000001FF
